:100F970053B1FC53B2FC53B3DF53B4DF5395305313
:100FA70096305391CF5392CFC2C55393FD439402CA
:030FB700C28122D2
:100F4100751C40751D017521007520C2751F017545
:100F51001E00752301E4F524FB7A00791C7F011240
:0C0F610000967D017F01120ECC53A23FD0
:010F6D002261
:100962007B017A0079008B1C8A1D891E1207C464E0
:10097200AA6003020A48AB1CAA1DA91E900001121C
:1009820007DD64AA6003020A489000021207DD60D4
:1009920003020A489000031207DD64016003020AA1
:1009A200489000061207DD64BB6003020A4890000B
:1009B200041207DD640170329000051207DD702A0F
:1009C200C2A7C2A6C295C294C2A3C2A2C2A1C2A019
:1009D2007FFA1210BED2A7D2A6D295D294D2A3D2B7
:1009E200A2D2A1D2A07FFA0210BEAB1CAA1DA91EE0
:1009F2009000041207DD640270269000051207DDE4
:100A0200B4031D751F01AD1FAF1F12105B7FFA12D9
:100A120010BE051FD3E51F6480948840E902110BC4
:100A2200AB1CAA1DA91E9000041207DDB403179087
:100A320000051207DDB4020ED2817FFA1210BE7FCA
:060A4200FA1210BEC28191
:010A4800228B
:100F6E00D2AF120F97120F41121102E50CD394005B
:100F7E004010D50C0DE50BD394004003120962E42A
:090F8E00F50B7F011210BE80E298
:0F10BE007D607C09ED1D70011C144C70F7DFF193
:0110CD002200
:10057000EFD3940740037FFF221207C4FED39403F6
:1005800040037FFF22EF7041EE700B9000011207D5
:10059000DDF4529352941207C4B4010B900001127F
:1005A00007DD4293F452941207C4FEB4020A90008D
:1005B000011207DD42934294EEB4030D9000011244
:1005C00007DDFEF45293EE4294EF6401704312078C
:1005D000C4FE700B9000011207DDF452915292EEAE
:1005E000B4010B9000011207DD4291F45292120700
:1005F000C4B4020A9000011207DD42914292120730
:10060000C4B4030D9000011207DDFEF45291EE42D6
:1006100092EF640270431207C4FE700B9000011247
:1006200007DDF452955296EEB4010B9000011207CB
:10063000DD4295F452961207C4B4020A90000112EA
:1006400007DD429542961207C4B4030D90000112D3
:1006500007DDFEF45295EE4296EF640370431207F5
:10066000C4FE700B9000011207DDF452B152B2EEDD
:10067000B4010B9000011207DD42B1F452B212072F
:10068000C4B4020A9000011207DD42B142B212075F
:10069000C4B4030D9000011207DDFEF452B1EE4226
:1006A000B2EF640470431207C4FE700B9000011295
:1006B00007DDF452B352B4EEB4010B9000011207FF
:1006C000DD42B3F452B41207C4B4020A900001121E
:1006D00007DD42B342B41207C4B4030D9000011207
:1006E00007DDFEF452B3EE42B4EF64057043120727
:1006F000C4FE700B9000011207DDF452C952CAEE1D
:10070000B4010B9000011207DD42C9F452CA12076E
:10071000C4B4020A9000011207DD42C942CA12079E
:10072000C4B4030D9000011207DDFEF452C9EE427D
:10073000CAEF640670431207C4FE700B90000112EA
:1007400007DDF452CB52CCEEB4010B90000112073E
:10075000DD42CBF452CC1207C4B4020A900001125D
:1007600007DD42CB42CC1207C4B4030D9000011246
:1007700007DDFEF452CBEE42CCEF64077043120764
:10078000C4FF700B9000011207DDF452E152E2EF5A
:10079000B4010B9000011207DD42E1F452E21207AE
:1007A000C4B4020A9000011207DD42E142E21207DE
:1007B000C4B4030D9000011207DDFFF452E1EF42D3
:0407C000E27F0022B2
:100D9600EFD3940140037FFF22EDD3940340037FFA
:100DA600FF22EF7004C2A98002D2A9ED700553B7E5
:100DB600FDC2B9BD010553B7FDD2B9BD020543B7A2
:0E0DC60002C2B9BD030543B702D2B97F0022B5
:100DD400EFD3940140037FFF22EDD3940340037FBC
:100DE400FF22EF7004C2AB8002D2ABED700553B7A3
:100DF400F7C2BBBD010553B7F7D2BBBD020543B76C
:0E0E040008C2BBBD030543B708D2BB7F002266
:100FDD00EFD3940140037FFF22EDD3940340037FB1
:100FED00FF22EF25E025E0FFE5AF54FB4FF5AFE421
:020FFD00FF22D1
:100FFF00EFD3940140037FFF22EDD3940340037F8F
:10100F00FF22EFC43354E0FFE5AF54DF4FF5AFE4F9
:02101F00FF22AE
:100FBA00EFD3940140037FFF22EDD3940340037FD4
:100FCA00FF22EFC4333354C0FFE5AF54BF4FF5AF30
:030FDA00E4FF220F
:100E1200EFD3940140037FFF22EDD3940340037F7D
:100E2200FF22EF7004C2A88002D2A8ED700553B76A
:100E3200FEC2B8BD010553B7FED2B8BD020543B725
:0E0E420001C2B8BD030543B701D2B87F00223C
:100E5000EFD3940140037FFF22EDD3940340037F3F
:100E6000FF22EF7004C2AA8002D2AAED700553B728
:100E7000FBC2BABD010553B7FBD2BABD020543B7E9
:0E0E800004C2BABD030543B704D2BA7F0022F4
:10104300EFD3940140037FFF22EFC454F0FFE58FF9
:0810530054EF4FF58FE4FF227A
:10002600EFD3940140037FFF22EFC43354E0FFE592
:090036008F54DF4FF58FE4FF2227
:10000300EFD3940140037FFF22EFC4333354C0FF87
:0A001300E58F54BF4FF58FE4FF2284
:100E8E00EFD3940140037FFF22EDD3940340037F01
:100E9E00FF22EF7004C2AD8002D2ADED700553B7E4
:100EAE00DFC2BDBD010553B7DFD2BDBD020543B7DD
:0E0EBE0020C2BDBD030543B720D2BD7F002278
:100C4000EDD3940340037FFF22EF30E10543E6201C
:100C5000800353E6DFEF30E00543E610800353E600
:100C6000EFED700653B6DF53B5DFBD010653B6DFB7
:100C700043B520BD020643B62053B5DFBD0306438E
:080C8000B62043B5207F0022DD
:100AC300EFD3940140037FFF22EBD3940340037FD2
:100AD300FF22BF0112ED90FE817006E0547FF0808B
:100AE30011E04480F0800BEF700890FE83E05487A0
:100AF3004DF0EB700653B6DF53B5DFBB010653B6BB
:100B0300DF43B520BB020643B62053B5DFBB030664
:090B130043B62043B5207F002207
:100ECC00EFD3940140037FFF22EDD3940340037FC3
:100EDC00FF22EF7004C2AC8002D2ACED700553B7A8
:100EEC00EFC2BCBD010553B7EFD2BCBD020543B781
:0E0EFC0010C2BCBD030543B710D2BC7F00225C
:100D5600EFD3940140037FFF22EDD3940340037F3A
:100D6600FF22E5AF54FE4FF5AFED700653B6FE53C6
:100D7600B5FEBD010653B6FE43B501BD020643B638
:100D86000153B5FEBD030643B60143B5017F0022FC
:100C8800EFD3940140037FFF22EDD3940340037F09
:100C9800FF22EF33333354F8FFE5AF54F74FF5AF86
:100CA800ED700653EEFE53DFFEBD010653EEFE4324
:100CB800DF01BD020643EE0153DFFEBD030643EE2E
:070CC8000143DF017F002260
:10004600EFD3940140037FFF22EDD3940340037F57
:10005600FF22EFC454F0FFE5AF54EF4FF5AFED705C
:100066000653EEFD53DFFDBD010653EEFD43DF02F1
:10007600BD020643EE0253DFFDBD030643EE024317
:05008600DF027F0022F3
:100CCF00EFD3940140037FFF22EDD3940340037FC2
:100CDF00FF22EF25E0FFE5AF54FD4FF5AFED7006B6
:100CEF0053B6FD53B5FDBD010653B6FD43B502BD69
:100CFF00020643B60253B5FDBD030643B60243B524
:040D0F00027F00223D
:100A4900EFD3948140037FFF22EBD3940340037FCC
:100A5900FF22EF247F603004705890FEC4EDF0EB64
:100A6900700653B6FB53B5FBBB010653B6FB43B542
:100A790004BB020643B60453B5FBEB640370384369
:100A8900B60443B504803090FEE4EDF0EB700653F4
:100A9900B6F753B5F7BB010653B6F743B508BB0222
:100AA9000643B60853B5F7BB030D43B60843B5086B
:0A0AB900800590FEE4EDF07F0022BE
:100F0A00EDD394035026ED700653EEFB53DFFBBD81
:100F1A00010653EEFB43DF04BD020643EE0453DF32
:100F2A00FBBD030B43EE0443DF0480037FFF2290E3
:070F3A00FE62EFF07F0022D0
:080096008F258B268A2789289B
:10009E00E5256401600302020CF508F509F50AF581
:1000AE000BF50CF529F52A7440252AF582740135D5
:1000BE0029F583E4F0052AE52A70020529648045B6
:1000CE002970E4E4F529F52A7400252AF5827400D6
:1000DE003529F583E4F0052AE52A700205296480A6
:1000EE00452970E4AB26AA27A9281207C4FFE59874
:1000FE00543F4FF598EF64C06008EF644060030210
:10010E0001C19000021208FC7F807E8D7D5B7C0019
:10011E001208468F2E8E2D8D2C8C2BE4FFFE7D012A
:10012E00FCAB2EAA2DA92CA82BC31208D840037FF6
:10013E00FF22C3E4952EF52EE4952DF52D74019531
:10014E002CF52CE4952BF52BAB26AA27A92890008D
:10015E00011207DDFB6401702CC28E538EFE538993
:10016E00BF5389CF438E40AF2EAE2DAD2CAC2B7826
:10017E00081208E98F8D852E8BC2AB5389BF538F22
:10018E00FDD28E8062EB64027026538EEF438E0199
:10019E00538EF7438E04AF2EAE2DAD2CAC2B7808BC
:1001AE001208E98FD6852ED753AFFB438E108037BA
:1001BE007FFF22AB26AA27A9281207C4FF7013902F
:1001CE0000081207DDB40105438E20801A538EDF1E
:1001DE008015EFB480119000081207DDB4010543BD
:1001EE008780800353877FAB26AA27A92890000714
:1001FE001207DD7004C29C8002D29C7F0022E5258E
:10020E0064026003020305F50DF50EF50FF510F50A
:10021E0011F529F52A74E0252AF58274013529F5A0
:10022E0083E4F0052AE52A700205296480452970C9
:10023E00E4E4F529F52A7480252AF582740035291F
:10024E00F583E4F0052AE52A700205296480452924
:10025E0070E4AB26AA27A9281207C4FF64C0600564
:10026E00EF64407075EFB4C005439A808003539AD3
:10027E007F9000021208FC7F807E8D7D5B7C0012D9
:10028E0008468F2E8E2D8D2C8C2BE4FFFE7D01FCCF
:10029E00AB2EAA2DA92CA82BC31208D840037FFF82
:1002AE0022C3E4952EF52EE4952DF52D7401952C93
:1002BE00F52CE4952BF52B538EEF538EF7438E04CE
:1002CE00AF2EAE2DAD2CAC2B78081208E98FD6854B
:1002DE002ED753AFFB438E1080037FFF22AB26AA8F
:1002EE0027A9289000071207DDC454F0FFE59A54A1
:1002FE00EF4FF59A7F0022E525640360030204396F
:10030E00F512F513F514F515F516F529F52A7460A1
:10031E00252AF58274023529F583E4F0052AE52AAB
:10032E00700205296440452970E4E4F529F52A7424
:10033E0000252AF58274013529F583E4F0052AE5B6
:10034E002A700205296440452970E4AB26AA27A924
:10035E00281207C4FF64C06008EF64406003020403
:10036E001CEFB4C00543AC80800353AC7F900002F9
:10037E001208FC7F807E8D7D5B7C001208468F2EDE
:10038E008E2D8D2C8C2BE4FFFE7D01FCAB2EAA2D29
:10039E00A92CA82BC31208D840037FFF22C3E495D3
:1003AE002EF52EE4952DF52D7401952CF52CE49556
:1003BE002BF52BAB26AA27A9289000011207DDFBEF
:1003CE00B4031D43AC40AF2EAE2DAD2CAC2B780834
:1003DE001208E98FD4852ED553D1F043D10A80313E
:1003EE00EB64027026538EEF53ACBF538EF7438EE1
:1003FE0004AF2EAE2DAD2CAC2B78081208E98FD69B
:10040E00852ED753AFFB438E1080067FFF227FFFD2
:10041E0022AB26AA27A9289000071207DDC454F0A4
:10042E00FFE5AC54EF4FF5AC7F0022E52564046088
:10043E000302056DF517F518F519F51AF51BF529D3
:10044E00F52A74A0252AF58274023529F583E4F085
:10045E00052AE52A700205296420452970E4E4F591
:10046E0029F52A74C0252AF58274013529F583E40D
:10047E00F0052AE52A700205296420452970E4ABAF
:10048E0026AA27A9281207C4FF64C06008EF64409B
:10049E006003020550EFB4C005438480800353848B
:1004AE007F9000021208FC7F807E8D7D5B7C0012A7
:1004BE0008468F2E8E2D8D2C8C2BE4FFFE7D01FC9D
:1004CE00AB2EAA2DA92CA82BC31208D840037FFF50
:1004DE0022C3E4952EF52EE4952DF52D7401952C61
:1004EE00F52CE4952BF52BAB26AA27A92890000115
:1004FE001207DDFBB4041D438440AF2EAE2DAD2C90
:10050E00AC2B78081208E98FD2852ED353D10F4326
:10051E00D1A08031EB64027026538EEF5384BF530B
:10052E008EF7438E04AF2EAE2DAD2CAC2B78081269
:10053E0008E98FD6852ED753AFFB438E1080067FEA
:10054E00FF227FFF22AB26AA27A9289000071207B9
:10055E00DDC454F0FFE58454EF4FF5847F00227F15
:01056E00FF8D
:01056F002269
:0A10DA008F99750A01E50A70FC22E7
:101072001207C4FF600C1210DA740129F9E43AFA7B
:0310820080EE22DB
:0A10E4008F9B750F01E50F70FC22D1
:101085001207C4FF600C1210E4740129F9E43AFA5E
:0310950080EE22C8
:0A10EE008FAD751401E51470FC22AB
:101098001207C4FF600C1210EE740129F9E43AFA41
:0310A80080EE22B5
:0A10F8008F85751901E51970FC22BF
:1010AB001207C4FF600C1210F8740129F9E43AFA24
:0310BB0080EE22A2
:05001D00AE070210DA3D
:03002300020D13B8
:100D1300C0E0C083C082C0D075D000C00730982027
:100D2300C298E50BC394804003750B00AF0B050B12
:100D330074002FF582E43400F583E599F0750C0512
:100D4300309905C299750A00D007D0D0D082D083DC
:030D5300D0E032BB
:03004300020B1C91
:100B1C00C0E0C083C082C0D075D000C007E59A3059
:100B2C00E021539AFEE510C394804003751000AF8A
:100B3C0010051074802FF582E43400F583E59BF0EA
:100B4C00751105E59A30E106539AFD750F00D00733
:090B5C00D0D0D082D083D0E03269
:03008B00020B6500
:100B6500C0E0C083C082C0D075D000C007E5AC30FE
:100B7500E02153ACFEE515C394404003751500AF65
:100B850015051574002FF582E43401F583E5ADF004
:100B9500751605E5AC30E10653ACFD751400D007BC
:090BA500D0D0D082D083D0E03220
:03009300020BAEAF
:100BAE00C0E0C083C082C0D075D000C007E58430DD
:100BBE00E0215384FEE51AC394204003751A00AF5A
:100BCE001A051A74C02FF582E43401F583E585F019
:100BDE00751B05E58430E1065384FD751900D007B9
:090BEE00D0D0D082D083D0E032D7
:10102100C0F9A4B0999282F88090407924301912C5
:10103100027800107FBF8883C6A1868E89F1C78C94
:0210410098C154
:0911020053B3E343B41C02110BCA
:100BF7007E07A806EF088002C313D8FC1392C4C26D
:100C0700C20000D2C200001EC3EE6480948050E28E
:100C17007E07A806ED088002C313D8FC1392C4C24E
:100C2700C20000D2C200001EC3EE6480948050E26E
:080C3700C2C30000D2C300009B
:010C3F002292
:10105B00EF90102193FFED14FEF87401088002C38A
:07106B0033D8FCFD020BF776
:07110B00E4FD7FFF020BF77A
:030000000210CE1D
:0C10CE00787FE4F6D8FD75812E020F6ECD
:1007C400BB010689828A83E0225002E722BBFE0233
:0907D400E32289828A83E4932266
:1007DD00BB010CE58229F582E5833AF583E02250D1
:1007ED0006E92582F8E622BBFE06E92582F8E2221B
:0D07FD00E58229F582E5833AF583E4932235
:10080A0075F008758200EF2FFFEE33FECD33CDCCA5
:10081A0033CCC58233C5829BED9AEC99E582984028
:10082A000CF582EE9BFEED9AFDEC99FC0FD5F0D605
:10083A00E4CEFBE4CDFAE4CCF9A88222B800C1B92F
:10084A000059BA002DEC8BF084CFCECDFCE5F0CB6D
:10085A00F97818EF2FFFEE33FEED33FDEC33FCEBA6
:10086A0033FB10D703994004EB99FB0FD8E5E4F961
:10087A00FA227818EF2FFFEE33FEED33FDEC33FC4E
:10088A00C933C910D7059BE99A4007EC9BFCE99A42
:10089A00F90FD8E0E4C9FAE4CCFB2275F010EF2F87
:1008AA00FFEE33FEED33FDCC33CCC833C810D70787
:1008BA009BEC9AE899400AED9BFDEC9AFCE899F8C2
:0E08CA000FD5F0DAE4CDFBE4CCFAE4C8F92255
:1008D800EB9FF5F0EA9E42F0E99D42F0E89C45F076
:0108E80022ED
:1008E900E8600FECC313FCED13FDEE13FEEF13FFED
:0308F900D8F12211
:1008FC00BB010DE58229F582E5833AF583020939BE
:10090C005007E92582F802092CBBFE07E92582F87D
:10091C00020945E58229F582E5833AF583020952FD
:0D092C00E6FB08E6F908E6FA08E6CBF8223B
:0C093900E0F8A3E0F9A3E0FAA3E0FB2241
:0D094500E2FB08E2F908E2FA08E2CBF82232
:10095200E493F8740193F9740293FA740393FB22FB
:00000001FF
