:02008E0017B7A2
:02009000170552
:0E17A9003D3D7379735F696E69743D3D0A00C2
:10179900752303E4F522FB7A0079227F03020E30D8
:101640007522407523017527007526C27525017521
:101650002400752901E4F52AFB7A0079227F011222
:0C16600000967D017F0112159B53A23FF4
:01166C00225B
:10000E00D2AF43BA801217991216407BFF7A177936
:04001E00A90205D25C
:0D17B70012000E7F011208CCE4FF0209555C
:10170500E4FB7DFFFF121084E4FBFA7D647F021287
:0417150009DE80F475
:100E3000EFD3940740037FFF22120BAFFED394033E
:100E400040037FFF22EF7041EE700B900001120B08
:100E5000C8F452935294120BAFB4010B90000112DC
:100E60000BC84293F45294120BAFFEB4020A9000E6
:100E700001120BC842934294EEB4030D900001128C
:100E80000BC8FEF45293EE4294EF64017043120BD0
:100E9000AFFE700B900001120BC8F452915292EE0B
:100EA000B4010B900001120BC84291F45292120B44
:100EB000AFB4020A900001120BC842914292120B89
:100EC000AFB4030D900001120BC8FEF45291EE4234
:100ED00092EF64027043120BAFFE700B9000011290
:100EE0000BC8F452955296EEB4010B900001120B10
:100EF000C84295F45296120BAFB4020A9000011248
:100F00000BC842954296120BAFB4030D900001122C
:100F10000BC8FEF45295EE4296EF64037043120B39
:100F2000AFFE700B900001120BC8F452B152B2EE3A
:100F3000B4010B900001120BC842B1F452B2120B73
:100F4000AFB4020A900001120BC842B142B2120BB8
:100F5000AFB4030D900001120BC8FEF452B1EE4283
:100F6000B2EF64047043120BAFFE700B90000112DD
:100F70000BC8F452B352B4EEB4010B900001120B43
:100F8000C842B3F452B4120BAFB4020A900001127B
:100F90000BC842B342B4120BAFB4030D9000011260
:100FA0000BC8FEF452B3EE42B4EF64057043120B6B
:100FB000AFFE700B900001120BC8F452C952CAEE7A
:100FC000B4010B900001120BC842C9F452CA120BB3
:100FD000AFB4020A900001120BC842C942CA120BF8
:100FE000AFB4030D900001120BC8FEF452C9EE42DB
:100FF000CAEF64067043120BAFFE700B9000011233
:101000000BC8F452CB52CCEEB4010B900001120B82
:10101000C842CBF452CC120BAFB4020A90000112BA
:101020000BC842CB42CC120BAFB4030D900001129F
:101030000BC8FEF452CBEE42CCEF64077043120BA8
:10104000AFFF700B900001120BC8F452E152E2EFB7
:10105000B4010B900001120BC842E1F452E2120BF2
:10106000AFB4020A900001120BC842E142E2120B37
:10107000AFB4030D900001120BC8FFF452E1EF4230
:04108000E27F0022E9
:10146500EFD3940140037FFF22EDD3940340037F24
:10147500FF22EF7004C2A98002D2A9ED700553B70F
:10148500FDC2B9BD010553B7FDD2B9BD020543B7CC
:0E14950002C2B9BD030543B702D2B97F0022DF
:1014A300EFD3940140037FFF22EDD3940340037FE6
:1014B300FF22EF7004C2AB8002D2ABED700553B7CD
:1014C300F7C2BBBD010553B7F7D2BBBD020543B796
:0E14D30008C2BBBD030543B708D2BB7F002291
:10169000EFD3940140037FFF22EDD3940340037FF7
:1016A000FF22EF25E025E0FFE5AF54FB4FF5AFE467
:0216B000FF2217
:1016B200EFD3940140037FFF22EDD3940340037FD5
:1016C200FF22EFC43354E0FFE5AF54DF4FF5AFE440
:0216D200FF22F5
:10166D00EFD3940140037FFF22EDD3940340037F1A
:10167D00FF22EFC4333354C0FFE5AF54BF4FF5AF76
:03168D00E4FF2255
:1014E100EFD3940140037FFF22EDD3940340037FA8
:1014F100FF22EF7004C2A88002D2A8ED700553B795
:10150100FEC2B8BD010553B7FED2B8BD020543B74F
:0E15110001C2B8BD030543B701D2B87F002266
:10151F00EFD3940140037FFF22EDD3940340037F69
:10152F00FF22EF7004C2AA8002D2AAED700553B752
:10153F00FBC2BABD010553B7FBD2BABD020543B713
:0E154F0004C2BABD030543B704D2BA7F00221E
:1016ED00EFD3940140037FFF22EFC454F0FFE58F49
:0816FD0054EF4FF58FE4FF22CA
:1016D400EFD3940140037FFF22EFC43354E0FFE5CE
:0916E4008F54DF4FF58FE4FF2263
:10002600EFD3940140037FFF22EFC4333354C0FF64
:0A003600E58F54BF4FF58FE4FF2261
:10155D00EFD3940140037FFF22EDD3940340037F2B
:10156D00FF22EF7004C2AD8002D2ADED700553B70E
:10157D00DFC2BDBD010553B7DFD2BDBD020543B707
:0E158D0020C2BDBD030543B720D2BD7F0022A2
:10130F00EDD3940340037FFF22EF30E10543E62046
:10131F00800353E6DFEF30E00543E610800353E62A
:10132F00EFED700653B6DF53B5DFBD010653B6DFE1
:10133F0043B520BD020643B62053B5DFBD030643B8
:08134F00B62043B5207F002207
:10118700EFD3940140037FFF22EBD3940340037F07
:10119700FF22BF0112ED90FE817006E0547FF080C0
:1011A70011E04480F0800BEF700890FE83E05487D5
:1011B7004DF0EB700653B6DF53B5DFBB010653B6F0
:1011C700DF43B520BB020643B62053B5DFBB03069A
:0911D70043B62043B5207F00223D
:10159B00EFD3940140037FFF22EDD3940340037FED
:1015AB00FF22EF7004C2AC8002D2ACED700553B7D2
:1015BB00EFC2BCBD010553B7EFD2BCBD020543B7AB
:0E15CB0010C2BCBD030543B710D2BC7F002286
:10142500EFD3940140037FFF22EDD3940340037F64
:10143500FF22E5AF54FE4FF5AFED700653B6FE53F0
:10144500B5FEBD010653B6FE43B501BD020643B662
:101455000153B5FEBD030643B60143B5017F002226
:10135700EFD3940140037FFF22EDD3940340037F33
:10136700FF22EF33333354F8FFE5AF54F74FF5AFB0
:10137700ED700653EEFE53DFFEBD010653EEFE434E
:10138700DF01BD020643EE0153DFFEBD030643EE58
:071397000143DF017F00228A
:10004600EFD3940140037FFF22EDD3940340037F57
:10005600FF22EFC454F0FFE5AF54EF4FF5AFED705C
:100066000653EEFD53DFFDBD010653EEFD43DF02F1
:10007600BD020643EE0253DFFDBD030643EE024317
:05008600DF027F0022F3
:10139E00EFD3940140037FFF22EDD3940340037FEC
:1013AE00FF22EF25E0FFE5AF54FD4FF5AFED7006E0
:1013BE0053B6FD53B5FDBD010653B6FD43B502BD93
:1013CE00020643B60253B5FDBD030643B60243B54E
:0413DE00027F002268
:10110D00EFD3948140037FFF22EBD3940340037F01
:10111D00FF22EF247F603004705890FEC4EDF0EB99
:10112D00700653B6FB53B5FBBB010653B6FB43B577
:10113D0004BB020643B60453B5FBEB64037038439E
:10114D00B60443B504803090FEE4EDF0EB70065329
:10115D00B6F753B5F7BB010653B6F743B508BB0257
:10116D000643B60853B5F7BB030D43B60843B508A0
:0A117D00800590FEE4EDF07F0022F3
:1015D900EDD394035026ED700653EEFB53DFFBBDAC
:1015E900010653EEFB43DF04BD020643EE0453DF5D
:1015F900FBBD030B43EE0443DF0480037FFF22900E
:07160900FE62EFF07F0022FA
:080096008F2B8B2C8A2D892E83
:10009E00E52B6401600302020CF54DF54EF54FF5AC
:1000AE0050F551F52FF53074602530F58274043516
:1000BE002FF583E4F00530E5307002052F6480459E
:1000CE002F70E4E4F52FF53074202530F58274039B
:1000DE00352FF583E4F00530E5307002052F64808E
:1000EE00452F70E4AB2CAA2DA92E120BAFFFE5986D
:1000FE00543F4FF598EF64C06008EF644060030210
:10010E0001C1900002120D6C7F807E8D7D5B7C00A4
:10011E00120CB68F348E338D328C31E4FFFE7D019E
:10012E00FCAB34AA33A932A831C3120D4840037F69
:10013E00FF22C3E49534F534E49533F53374019519
:10014E0032F532E49531F531AB2CAA2DA92E900063
:10015E0001120BC8FB6401702CC28E538EFE5389A4
:10016E00BF5389CF438E40AF34AE33AD32AC31780E
:10017E0008120D598F8D85348BC2AB5389BF538FA7
:10018E00FDD28E8062EB64027026538EEF438E0199
:10019E00538EF7438E04AF34AE33AD32AC317808A4
:1001AE00120D598FD68534D753AFFB438E1080373F
:1001BE007FFF22AB2CAA2DA92E120BAFFF7013902E
:1001CE000008120BC8B40105438E20801A538EDF2F
:1001DE008015EFB48011900008120BC8B4010543CE
:1001EE008780800353877FAB2CAA2DA92E90000702
:1001FE00120BC87004C29C8002D29C7F0022E52B99
:10020E0064026003020305F552F553F554F555F5F6
:10021E0056F52FF53074002530F5827405352FF51F
:10022E0083E4F00530E5307002052F6480452F70B1
:10023E00E4E4F52FF53074A02530F5827403352FE4
:10024E00F583E4F00530E5307002052F6480452F0C
:10025E0070E4AB2CAA2DA92E120BAFFF64C0600563
:10026E00EF64407075EFB4C005439A808003539AD3
:10027E007F900002120D6C7F807E8D7D5B7C001264
:10028E000CB68F348E338D328C31E4FFFE7D01FC43
:10029E00AB34AA33A932A831C3120D4840037FFFF5
:1002AE0022C3E49534F534E49533F5337401953275
:1002BE00F532E49531F531538EEF538EF7438E04BC
:1002CE00AF34AE33AD32AC317808120D598FD685BE
:1002DE0034D753AFFB438E1080037FFF22AB2CAA83
:1002EE002DA92E900007120BC8C454F0FFE59A54A6
:1002FE00EF4FF59A7F0022E52B6403600302043969
:10030E00F557F558F559F55AF55BF52FF53074801C
:10031E002530F5827405352FF583E4F00530E53090
:10032E007002052F6440452F70E4E4F52FF530740C
:10033E00202530F5827404352FF583E4F00530E581
:10034E00307002052F6440452F70E4AB2CAA2DA906
:10035E002E120BAFFF64C06008EF6440600302040E
:10036E001CEFB4C00543AC80800353AC7F900002F9
:10037E00120D6C7F807E8D7D5B7C00120CB68F34EF
:10038E008E338D328C31E4FFFE7D01FCAB34AA330B
:10039E00A932A831C3120D4840037FFF22C3E49552
:1003AE0034F534E49533F53374019532F532E49532
:1003BE0031F531AB2CAA2DA92E900001120BC8FBE2
:1003CE00B4031D43AC40AF34AE33AD32AC3178081C
:1003DE00120D598FD48534D553D1F043D10A8031C3
:1003EE00EB64027026538EEF53ACBF538EF7438EE1
:1003FE0004AF34AE33AD32AC317808120D598FD60E
:10040E008534D753AFFB438E1080067FFF227FFFCC
:10041E0022AB2CAA2DA92E900007120BC8C454F0A3
:10042E00FFE5AC54EF4FF5AC7F0022E52B64046082
:10043E000302056DF55CF55DF55EF55FF560F52F74
:10044E00F53074C02530F5827405352FF583E4F050
:10045E000530E5307002052F6420452F70E4E4F579
:10046E002FF53074E02530F5827404352FF583E4D2
:10047E00F00530E5307002052F6420452F70E4AB97
:10048E002CAA2DA92E120BAFFF64C06008EF64409A
:10049E006003020550EFB4C005438480800353848B
:1004AE007F900002120D6C7F807E8D7D5B7C001232
:1004BE000CB68F348E338D328C31E4FFFE7D01FC11
:1004CE00AB34AA33A932A831C3120D4840037FFFC3
:1004DE0022C3E49534F534E49533F5337401953243
:1004EE00F532E49531F531AB2CAA2DA92E900001F1
:1004FE00120BC8FBB4041D438440AF34AE33AD328F
:10050E00AC317808120D598FD28534D353D10F43A5
:10051E00D1A08031EB64027026538EEF5384BF530B
:10052E008EF7438E04AF34AE33AD32AC3178081251
:10053E000D598FD68534D753AFFB438E1080067F6F
:10054E00FF227FFF22AB2CAA2DA92E900007120BA3
:10055E00C8C454F0FFE58454EF4FF5847F00227F2A
:01056E00FF8D
:01056F002269
:0A17E8008F99754F01E54F70FC2248
:10171900120BAFFF600C1217E8740129F9E43AFAC9
:0317290080EE222D
:0A17F2008F9B755401E55470FC2232
:10172C00120BAFFF600C1217F2740129F9E43AFAAC
:03173C0080EE221A
:0A17FC008FAD755901E55970FC220C
:10173F00120BAFFF600C1217FC740129F9E43AFA8F
:03174F0080EE2207
:0A1806008F85755E01E55E70FC221F
:10175200120BAFFF600C121806740129F9E43AFA71
:0317620080EE22F4
:05000300AE070217E842
:030023000213E2E3
:1013E200C0E0C083C082C0D075D000C00730982052
:1013F200C298E550C394804003755000AF50055029
:1014020074202FF582E43403F583E599F0755105D4
:10141200309905C299754F00D007D0D0D082D083C1
:03142200D0E032E5
:0300430002123472
:10123400C0E0C083C082C0D075D000C007E59A303A
:10124400E021539AFEE555C394804003755500AFE1
:1012540055055574A02FF582E43403F583E59BF01E
:10126400755605E59A30E106539AFD755400D0078A
:09127400D0D0D082D083D0E0324A
:03008B0002127DE1
:10127D00C0E0C083C082C0D075D000C007E5AC30DF
:10128D00E02153ACFEE55AC394404003755A00AFBC
:10129D005A055A74202FF582E43404F583E5ADF038
:1012AD00755B05E5AC30E10653ACFD755900D00713
:0912BD00D0D0D082D083D0E03201
:030093000212C690
:1012C600C0E0C083C082C0D075D000C007E58430BE
:1012D600E0215384FEE55FC394204003755F00AFB1
:1012E6005F055F74E02FF582E43404F583E585F04D
:1012F600756005E58430E1065384FD755E00D00710
:09130600D0D0D082D083D0E032B7
:0D17C40053937F53947F53C9FB53CAFB22FC
:10177700EF7003D28722BF0103D2CA22D287D2CA0F
:01178700223F
:10178800EF7003C28722BF0103C2CA22C287C2CA3E
:01179800222E
:1017650043BA805391C7439238C29475CED375CD91
:02177500C02290
:0B17DD008FCFE5CD30E7FB75CD8022FB
:1011E000ED5480FF85434A85444B85454CAB40AA6E
:0311F00041A942D0
:1011F3008B478A488949EFAB4AAA4BA94C60121224
:101203000C17AB47AA48A949F58285F08374C080BF
:1012130010120C17AB47AA48A949F58285F08374CD
:10122300FC120BF5AB4AAA4BA94CE475F001020C76
:011233004278
:041610008F3DAE0359
:10161400E4FC1211E0ED25E0FD0CBC08F5AD3DE461
:10162400FC1211E0ED25E0FD0CBC08F5AD06E4FC70
:0B1634001211E0ED25E0FD0CBC08F5F4
:01163F002288
:061084008F368D378B381A
:10108A00E4F539F53A121765F53BF53C75400175FB
:10109A004100754200754300754400754539AB3807
:1010AA00AD37AF36121610053CE53C7002053BC35E
:1010BA00943CE53B940040D4C2AFE4F53BF53CC315
:1010CA00E53C953AE53B9539501B7400253CF58281
:1010DA007400353BF583E0FF1217DD053CE53C70F3
:1010EA00DE053B80DAE4F53BF53CE4FF1217DD054B
:1010FA003CE53C7002053BC39464E53B940040EA3E
:02110A00D2AF62
:01110C0022C0
:1008CC00EFD3940140037FFF22740F2F2FF8E62003
:1008DC00E5F4C2AFE64430F6D2AFAE0CEEC39F5097
:1008EC00210E74122EF8E6F908E618BE010274FF08
:1008FC00FDED69600909E71919F7090980F3161666
:10090C0080DAEED39F400405810581EED39F40220F
:10091C0074122EF808E6F9EEB50C02A98118060639
:10092C00E6FDED6960091919E70909F71980F31E4D
:10093C0080D9EF2412F8E604F8EF2F0490008E9380
:09094C00F608EF2F93F67F00225C
:10095500EFD3940140037FFF22EF23240FF8E63005
:10096500E5F4C2AFE6548CF6D2AFE50CB5070A74D0
:10097500122FF8E6F581020AB8502E74132FF8E607
:10098500BF010274FFFD18E6F974122FF8FBE6FCAF
:10099500E96C6008A805E7F61D1980F4A803A6050B
:1009A5001FE50CB507E37F002274132FF8E6FD1849
:1009B50086010F74122FF8A601088604E50CB50709
:1009C50002AC81ED6C60080D09A805E6F780F4E539
:0909D5000CB507DE89817F0022C8
:1009DE008FF0E4FFFEE50C23240EF8C2A930F70DCC
:1009EE007F08E6600B2DF660325030800730F1063E
:1009FE00EDF660277E020830F010C2AFE610E72554
:100A0E000E30E20CD2AF7F048014C2AFE610E715B1
:100A1E0054EC4EF6D2AFD2A9020AB87F0808EF44C2
:0F0A2E0083F4C2AF56C6D2AFD2A954804FFF2275
:03000B00020A42A4
:100A3D00C2AF80FE32120A4185D00B75D008AAE0F4
:100A4D00C28CE58A24F7F58AE58C34D8F58CD28CE6
:100A5D00EC2413F8E6BC010274FFC39581B41400B5
:100A6D0040CE7902780E16E608700BC2AFE630E183
:100A7D00034418F6D2AF08D9EDEA8BD03009012224
:100A8D00D50DFCC0E0C0D0C0F0C083C082C000C096
:100A9D0001C002C003C004C005C006C007E50C2399
:100AAD00240FF87440C2AF46F6D2AFD209E50CFF61
:100ABD0023240FF80F0808BF02047F00780FE630DB
:100ACD00E4F200E50CC39F5020050C7412250CF8C0
:100ADD00E6FDA68108E6AE0CBE010274FFCDF8E876
:100AED006D60E008E6C0E080F6E50CD39F4027E599
:100AFD000C2413F8E6AE0CBE010274FFFD18E6CD12
:100B0D00F8E5816D6006D0E0F61880F5E50C24124D
:100B1D00C8F6150C80D3750D05E50C23240FF87F51
:100B2D0004C2AFE610E61E30E00310E20C7F003089
:050B3D00E10730E304B4
:100B42007F0854F4547CC6D2AF54804207C20922B3
:100B5200F6D2AFD007D006D005D004D003D002D051
:100B620001D000D082D083D0F0D0D0D0E0C2092210
:100B72007812A68174016006FF0876FFDFFB7F0210
:100B8200E4780EF608F608DFFA780F763090008ED9
:100B9200740193C0E0E493C0E0750D0543890175CB
:0D0BA2008AF0758CD8D28CD2AFD2A9220176
:030000000217D113
:0C17D100787FE4F6D8FD758160020B7291
:100BAF00BB010689828A83E0225002E722BBFE0244
:090BBF00E32289828A83E4932277
:100BC800BB010CE58229F582E5833AF583E02250E2
:100BD80006E92582F8E622BBFE06E92582F8E2222C
:0D0BE800E58229F582E5833AF583E4932246
:100BF500F8BB010DE58229F582E5833AF583E8F036
:100C0500225006E92582C8F622BBFE05E92582C8E1
:020C1500F222C9
:100C1700BB010A89828A83E0F5F0A3E022500687A8
:100C2700F009E71922BBFE07E3F5F009E31922896A
:0B0C3700828A83E493F5F0740193229D
:100C4200BB010789828A83020DAE500B09C5F027CA
:100C5200F7C5F01937F722BBFE0D09F8E325F0F3CB
:100C6200C5F019E338F322F889828A837401932547
:080C7200F0C5F0F8E49338220C
:100C7A0075F008758200EF2FFFEE33FECD33CDCC31
:100C8A0033CCC58233C5829BED9AEC99E5829840B4
:100C9A000CF582EE9BFEED9AFDEC99FC0FD5F0D691
:100CAA00E4CEFBE4CDFAE4CCF9A88222B800C1B9BB
:100CBA000059BA002DEC8BF084CFCECDFCE5F0CBF9
:100CCA00F97818EF2FFFEE33FEED33FDEC33FCEB32
:100CDA0033FB10D703994004EB99FB0FD8E5E4F9ED
:100CEA00FA227818EF2FFFEE33FEED33FDEC33FCDA
:100CFA00C933C910D7059BE99A4007EC9BFCE99ACE
:100D0A00F90FD8E0E4C9FAE4CCFB2275F010EF2F12
:100D1A00FFEE33FEED33FDCC33CCC833C810D70712
:100D2A009BEC9AE899400AED9BFDEC9AFCE899F84D
:0E0D3A000FD5F0DAE4CDFBE4CCFAE4C8F922E0
:100D4800EB9FF5F0EA9E42F0E99D42F0E89C45F001
:010D58002278
:100D5900E8600FECC313FCED13FDEE13FEEF13FF78
:030D6900D8F1229C
:100D6C00BB010DE58229F582E5833AF583020DD1AD
:100D7C005007E92582F8020DC4BBFE07E92582F86D
:100D8C00020DDDE58229F582E5833AF583020DEA51
:10057000E5312425F8E60531227822300702782576
:10058000E475F001120DFA020BAF2000EB7F2ED2C2
:10059000008018EF540F2490D43440D4FF30040B63
:1005A000EF24BFB41A0050032461FFE53260021546
:1005B000320535E5357002053430070D7822E475D3
:1005C000F001120DFAEF020D9C0200037403D20732
:1005D0008003E4C207F5318B228A238924E4F532B3
:1005E000F534F535E53260077F201205AB80F575EF
:1005F00033FFC201C200C202C203C205C206C20862
:10060000120579FF700D3007057F001205BCAF356C
:10061000AE3422B4255FC2D5C204120579FF24D0BE
:10062000B40A00501A75F00A783230D50508B6FFC2
:100630000106C6A426F620D5047002D20380D92470
:10064000CFB41A00EF5004C2E5D2040207BCD201B5
:1006500080C6D20080C0D20280BCD2D580BAD2057A
:1006600080B47F201205AB2002077401B532004030
:10067000F1120570FF1205AB0205E4D208D2068024
:1006800095120570FB120570FA120570F94A4B704D
:1006900006798D7A087BFF20022EE532602A7E00E3
:1006A0008E82758300120BC860060EEE653370F003
:1006B000C2D5EBC0E0EAC0E0E9C0E0EE120803D02A
:1006C000E0F9D0E0FAD0E0FB120BAFFF60AAEBC07C
:1006D000E0EAC0E0E9C0E01205ABD0E02401F9D0C7
:1006E000E03400FAD0E0FBE5330460DCD533D98098
:1006F000877BFF7A0779FFD202809C79108002798C
:1007000008C206C2088008D2D5790A8004790AC2D4
:10071000D5E533047002F533E4FAFDFEFF120570EF
:10072000FC7B08200113120570FD7B1030000A12BB
:100730000570FE120570FF7B20EC3382D592D550F8
:1007400013C3E43000069FFFE49EFEE42001039DF6
:10075000FDE49CFCE4CBF8C201EC700CCFCECDCC18
:10076000E824F8F870F38017C3EF33FFEE33FEEDA3
:1007700033FDEC33FCEB33FB994002FB0FD8E9EB84
:10078000300105F8D0E0C448B201C0E00AEC4D4E9B
:100790004F78207B0070C2EAB5330040BCC0E01245
:1007A0000805D0F0D0E0200104C4C0E0C4B201C00C
:1007B000F0120594D0F0D5F0EB0205E4120E0A0613
:1007C000815306FB5806524C064E4206FF4F070760
:0F07D00044070749066743070D5506F14606F132
:1007DF004506F14708AD5006562D065A2E067D2BBD
:1007EF00065E23067B2008962A061648000006752B
:1007FF003F3F3F00790AA2D5200314300509B910F5
:10080F00020404B9080104A2D520060250010420F5
:10081F0002689202B532005034C0E07F20300319D5
:10082F007F30A20272067205500F12085CC202C21C
:10083F0006C205C2087F30800F300503E9C0E01201
:10084F0005AB300503D0E0F9D0E0B532CC30051759
:10085F007F30B9100C1205AB7F583004077F7880BA
:10086F0003B908031205AB3002057F2D0205AB7FDC
:10087F00202008F87F2B2006F322920280CF286ECB
:10088F00756C6C2900D2011205703001F8C2017825
:10089F003230D50108F60206162D5043495812057D
:1008AF00702403B405004001E49008A89312059C3E
:0D08BF00743A12059CD2037532040206FB48
:100D9C00BB010689828A83F0225002F722BBFE0136
:020DAC00F32230
:100DAE00C5F0F8A3E028F0C5F0F8E58215827002D0
:060DBE001583E038F0226D
:0D0DC400E6FB08E6F908E6FA08E6CBF8229F
:0C0DD100E0F8A3E0F9A3E0FAA3E0FB22A5
:0D0DDD00E2FB08E2F908E2FA08E2CBF82296
:100DEA00E493F8740193F9740293FA740393FB225F
:100DFA00FAE6FB0808E6F925F0F618E6CA3AF622FA
:100E0A00D083D082F8E4937012740193700DA3A377
:100E1A0093F8740193F5828883E47374029368608B
:060E2A00EFA3A3A380DF8B
:00000001FF
