:0300000002157274
:0C157200787FE4F6D8FD75815A0215B9A7
:101ABA000130010131010132010133011018000026
:101ACA0000000000000000000000000000001008F4
:101ADA0000000000000000000000000000000000FC
:0C1AEA00042C42B4000004284234000028
:101E0C00E4F548754903FB7A0079487F03120F7893
:101E1C0053C9E153CAE15393FB4394045395BF4315
:021E2C009640DE
:011E2E002291
:101DB600754840754901754D00754CC2754B0175E6
:101DC6004A00754F01E4F550FB7A0079487F01120D
:0C1DD600068C7D017F01121A7C53A23F95
:011DE20022DE
:101434007549BB754A7FE4F54D755001754F01FB45
:101444007A0079487F81120B6675486085244B8544
:10145400254C754E107B007A0079487F07120B6685
:101464007549BB754A7FE4F54D755001754F01FB15
:101474007A0079487F80120B66754860850E4B852B
:101484000F4C754E407B007A0079487F04120B663E
:1014940090FEF0E4F0A37409F090FED0E4F0A3749D
:1014A40009F090FEB6E054CF4420F090FEB2E05430
:1014B4003F4440F090FEDDE04480F090FECDE044F7
:1014C40010F0E4FBFD7F811215FEE4FBFD7F80023A
:0214D40015FE03
:1014D600E4FFFE7DFA7C44AB2FAA2EA92DA82C1280
:1014E600018EE4FBFA79347843120297E4FBFA7929
:1014F600FA784312009D1203ADE4FCFD7B807ABBB3
:10150600F9F81204D7E47B207A4EF9F812187F8E88
:10151600248F257B007A0079187F071211CCE4FF0F
:10152600FE7D7A7C44AB2BAA2AA929A82812018E13
:10153600E4FBFA79B47842120297E4FBFA79FA7876
:101546004312009D1203ADE4FCFD7B807ABBF9F8E3
:101556001204D7E47B207A4EF9F812187F8E0E8F8C
:0C1566000F7B007A0079087F040211CC92
:1013190043BA80121E0C121DB675240E7525107560
:101329000E09750F601214341214D6D2AF20C938C1
:10133900AF2FAE2EAD2DAC2CE4FBFA7980783F129D
:1013490000998F2F8E2E8D2D8C2CE4FFFEFDFCAB8A
:101359002FAA2EA92DA82C1203345009E4F52FF534
:101369002EF52DF52C1214D620CA3EAF2FAE2EAD78
:101379002DAC2CE4FBFA7980783F12009D8F2F8EDB
:101389002E8D2D8C2CE4FFFE7D347C43AB2FAA2EB1
:10139900A92DA82C120334600D400BE4F52FF52E6E
:1013A900752D34752C431214D620CB37AF2BAE2AAA
:1013B900AD29AC28E4FBFAF9783F1200998F2B8EFE
:1013C9002A8D298C28E4FFFEFDFCAB2BAA2AA9292A
:1013D900A8281203345009E4F52BF52AF529F52834
:1013E9001214D620CC3DAF2BAE2AAD29AC28E4FB94
:1013F900FAF9783F12009D8F2B8E2A8D298C28E4CB
:10140900FFFE7DB47C42AB2BAA2AA929A828120386
:1014190034600D400BE4F52BF52A7529B475284283
:0B1429001214D67F0A121EFA021336BE
:0F1EFA007D607C09ED1D70011C144C70F7DFF149
:011F090022B5
:100F7800EFD3940740037FFF2212042EFED394037D
:100F880040037FFF22EF7041EE700B9000011204C6
:100F980047F45293529412042EB4010B900001129C
:100FA80004474293F4529412042EFEB4020A9000AD
:100FB8000112044742934294EEB4030D90000112CB
:100FC8000447FEF45293EE4294EF64017043120416
:100FD8002EFE700B900001120447F452915292EECB
:100FE800B4010B9000011204474291F4529212048A
:100FF8002EB4020A90000112044742914292120450
:101008002EB4030D900001120447FEF45291EE42F3
:1010180092EF6402704312042EFE700B90000112CE
:101028000447F452955296EEB4010B900001120455
:10103800474295F4529612042EB4020A9000011207
:1010480004474295429612042EB4030D90000112F3
:101058000447FEF45295EE4296EF6403704312047F
:101068002EFE700B900001120447F452B152B2EEFA
:10107800B4010B90000112044742B1F452B21204B9
:101088002EB4020A90000112044742B142B212047F
:101098002EB4030D900001120447FEF452B1EE4243
:1010A800B2EF6404704312042EFE700B900001121C
:1010B8000447F452B352B4EEB4010B900001120489
:1010C8004742B3F452B412042EB4020A900001123B
:1010D800044742B342B412042EB4030D9000011227
:1010E8000447FEF452B3EE42B4EF640570431204B1
:1010F8002EFE700B900001120447F452C952CAEE3A
:10110800B4010B90000112044742C9F452CA1204F8
:101118002EB4020A90000112044742C942CA1204BE
:101128002EB4030D900001120447FEF452C9EE429A
:10113800CAEF6406704312042EFE700B9000011271
:101148000447F452CB52CCEEB4010B9000011204C8
:101158004742CBF452CC12042EB4020A900001127A
:10116800044742CB42CC12042EB4030D9000011266
:101178000447FEF452CBEE42CCEF640770431204EE
:101188002EFF700B900001120447F452E152E2EF77
:10119800B4010B90000112044742E1F452E2120438
:1011A8002EB4020A90000112044742E142E21204FE
:1011B8002EB4030D900001120447FFF452E1EF42F0
:0411C800E27F0022A0
:10194600EFD3940140037FFF22EDD3940340037F3E
:10195600FF22EF7004C2A98002D2A9ED700553B729
:10196600FDC2B9BD010553B7FDD2B9BD020543B7E6
:0E19760002C2B9BD030543B702D2B97F0022F9
:10198400EFD3940140037FFF22EDD3940340037F00
:10199400FF22EF7004C2AB8002D2ABED700553B7E7
:1019A400F7C2BBBD010553B7F7D2BBBD020543B7B0
:0E19B40008C2BBBD030543B708D2BB7F0022AB
:101E5200EFD3940140037FFF22EDD3940340037F2D
:101E6200FF22EF25E025E0FFE5AF54FB4FF5AFE49D
:021E7200FF224D
:101E7400EFD3940140037FFF22EDD3940340037F0B
:101E8400FF22EFC43354E0FFE5AF54DF4FF5AFE476
:021E9400FF222B
:101E2F00EFD3940140037FFF22EDD3940340037F50
:101E3F00FF22EFC4333354C0FFE5AF54BF4FF5AFAC
:031E4F00E4FF228B
:1019C200EFD3940140037FFF22EDD3940340037FC2
:1019D200FF22EF7004C2A88002D2A8ED700553B7AF
:1019E200FEC2B8BD010553B7FED2B8BD020543B76A
:0E19F20001C2B8BD030543B701D2B87F002281
:101A0000EFD3940140037FFF22EDD3940340037F83
:101A1000FF22EF7004C2AA8002D2AAED700553B76C
:101A2000FBC2BABD010553B7FBD2BABD020543B72D
:0E1A300004C2BABD030543B704D2BA7F002238
:101E9600EFD3940140037FFF22EFC454F0FFE58F98
:081EA60054EF4FF58FE4FF2219
:10002600EFD3940140037FFF22EFC43354E0FFE592
:090036008F54DF4FF58FE4FF2227
:10000300EFD3940140037FFF22EFC4333354C0FF87
:0A001300E58F54BF4FF58FE4FF2284
:101A3E00EFD3940140037FFF22EDD3940340037F45
:101A4E00FF22EF7004C2AD8002D2ADED700553B728
:101A5E00DFC2BDBD010553B7DFD2BDBD020543B721
:0E1A6E0020C2BDBD030543B720D2BD7F0022BC
:1017AC00EDD3940340037FFF22EF30E10543E620A5
:1017BC00800353E6DFEF30E00543E610800353E689
:1017CC00EFED700653B6DF53B5DFBD010653B6DF40
:1017DC0043B520BD020643B62053B5DFBD03064317
:0817EC00B62043B5207F002266
:10167800EFD3940140037FFF22EBD3940340037F11
:10168800FF22BF0112ED90FE817006E0547FF080CA
:1016980011E04480F0800BEF700890FE83E05487DF
:1016A8004DF0EB700653B6DF53B5DFBB010653B6FA
:1016B800DF43B520BB020643B62053B5DFBB0306A4
:0916C80043B62043B5207F002247
:101A7C00EFD3940140037FFF22EDD3940340037F07
:101A8C00FF22EF7004C2AC8002D2ACED700553B7EC
:101A9C00EFC2BCBD010553B7EFD2BCBD020543B7C5
:0E1AAC0010C2BCBD030543B710D2BC7F0022A0
:10190600EFD3940140037FFF22EDD3940340037F7E
:10191600FF22E5AF54FE4FF5AFED700653B6FE530A
:10192600B5FEBD010653B6FE43B501BD020643B67C
:101936000153B5FEBD030643B60143B5017F002240
:1017F400EFD3940140037FFF22EDD3940340037F92
:10180400FF22EF33333354F8FFE5AF54F74FF5AF0E
:10181400ED700653EEFE53DFFEBD010653EEFE43AC
:10182400DF01BD020643EE0153DFFEBD030643EEB6
:071834000143DF017F0022E8
:10004600EFD3940140037FFF22EDD3940340037F57
:10005600FF22EFC454F0FFE5AF54EF4FF5AFED705C
:100066000653EEFD53DFFDBD010653EEFD43DF02F1
:10007600BD020643EE0253DFFDBD030643EE024317
:05008600DF027F0022F3
:10183B00EFD3940140037FFF22EDD3940340037F4A
:10184B00FF22EF25E0FFE5AF54FD4FF5AFED70063E
:10185B0053B6FD53B5FDBD010653B6FD43B502BDF1
:10186B00020643B60253B5FDBD030643B60243B5AC
:04187B00027F0022C6
:1015FE00EFD3948140037FFF22EBD3940340037F0C
:10160E00FF22EF247F603004705890FEC4EDF0EBA3
:10161E00700653B6FB53B5FBBB010653B6FB43B581
:10162E0004BB020643B60453B5FBEB6403703843A8
:10163E00B60443B504803090FEE4EDF0EB70065333
:10164E00B6F753B5F7BB010653B6F743B508BB0261
:10165E000643B60853B5F7BB030D43B60843B508AA
:0A166E00800590FEE4EDF07F0022FD
:101AF700EDD394035026ED700653EEFB53DFFBBD89
:101B0700010653EEFB43DF04BD020643EE0453DF39
:101B1700FBBD030B43EE0443DF0480037FFF2290EA
:071B2700FE62EFF07F0022D7
:101B2E0090FA10E054F0F0EDD39403500BE0FEED7C
:101B3E0025E025E0FDEE4DF0EBD39403500690FA30
:101B4E0010E04BF090FA10E0BF01054480F08003E6
:061B5E00547FF07F00221D
:101B640090FA00E054F0F0EDD39403500BE0FEED56
:101B740025E025E0FDEE4DF0EBD39403500690FAFA
:101B840000E04BF090FA00E0BF01054480F08003D0
:061B9400547FF07F0022E7
:101B9A0090FA20E054F0F0EDD39403500BE0FEED00
:101BAA0025E025E0FDEE4DF0EBD39403500690FAC4
:101BBA0020E04BF090FA20E0BF01054480F080035A
:061BCA00547FF07F0022B1
:101BD00090FA30E054F0F0EDD39403500BE0FEEDBA
:101BE00025E025E0FDEE4DF0EBD39403500690FA8E
:101BF00030E04BF090FA30E0BF01054480F0800304
:061C0000547FF07F00227A
:101C060090FA38E054F0F0EDD39403500BE0FEED7B
:101C160025E025E0FDEE4DF0EBD39403500690FA57
:101C260038E04BF090FA38E0BF01054480F08003BD
:061C3600547FF07F002244
:101C3C0090FA40E054F0F0EDD39403500BE0FEED3D
:101C4C0025E025E0FDEE4DF0EBD39403500690FA21
:101C5C0040E04BF090FA40E0BF01054480F0800377
:061C6C00547FF07F00220E
:101C720090FA48E054F0F0EDD39403500BE0FEEDFF
:101C820025E025E0FDEE4DF0EBD39403500690FAEB
:101C920048E04BF090FA48E0BF01054480F0800331
:061CA200547FF07F0022D8
:101CA80090FA50E054F0F0EDD39403500BE0FEEDC1
:101CB80025E025E0FDEE4DF0EBD39403500690FAB5
:101CC80050E04BF090FA50E0BF01054480F08003EB
:061CD800547FF07F0022A2
:101CDE0090FA58E054F0F0EDD39403500BE0FEED83
:101CEE0025E025E0FDEE4DF0EBD39403500690FA7F
:101CFE0058E04BF090FA58E0BF01054480F08003A5
:061D0E00547FF07F00226B
:101D140090FA60E054F0F0EDD39403500BE0FEED44
:101D240025E025E0FDEE4DF0EBD39403500690FA48
:101D340060E04BF090FA60E0BF01054480F080035E
:061D4400547FF07F002235
:101D4A0090FA68E054F0F0EDD39403500BE0FEED06
:101D5A0025E025E0FDEE4DF0EBD39403500690FA12
:101D6A0068E04BF090FA68E0BF01054480F0800318
:061D7A00547FF07F0022FF
:101D800090FA70E054F0F0EDD39403500BE0FEEDC8
:101D900025E025E0FDEE4DF0EBD39403500690FADC
:101DA00070E04BF090FA70E0BF01054480F08003D2
:061DB000547FF07F0022C9
:101DE30090FE50E054CFF0EDD39403500AE0FEEDA3
:101DF300C454F0FDEE4DF090FE50E0BF0105448069
:091E0300F08003547FF07F0022FF
:100B6600AD07ED6401707A90FECCE054FEF0E054DF
:100B7600FBF090FEC8E054FCF012042EFF90FEC875
:100B8600E0548F4FF0900006120447FF90FECC30E1
:100B9600E00DE04401F090FEB1E04401F0800BE08E
:100BA60054FEF090FEB1E054FEF0EF90FECC30E142
:100BB6000DE04404F090FEB1E04402F0800BE054F6
:100BC600FBF090FEB1E054FDF090000312049FE5A7
:100BD600F090FED5F090000312049F90FED6020F0F
:100BE60020ED6402707A90FECCE054EFF0E054BF42
:100BF600F090FEC9E054FCF012042EFF90FEC9E00E
:100C0600548F4FF0900006120447FF90FECC30E25E
:100C16000DE04410F090FEB1E04404F0800BE05487
:100C2600EFF090FEB1E054FBF0EF90FECC30E30D18
:100C3600E04440F090FEB1E04408F0800BE054BF81
:100C4600F090FEB1E054F7F090000312049FE5F037
:100C560090FED7F090000312049F90FED8020F205A
:100C6600ED6403707A90FECDE054FEF0E054FBF0A4
:100C760090FECAE054FCF012042EFF90FECAE05427
:100C86008F4FF0900006120447FF90FECD30E40D22
:100C9600E04401F090FEB1E04410F0800BE054FE19
:100CA600F090FEB1E054EFF0EF90FECD30E50DE0B0
:100CB6004404F090FEB1E04420F0800BE054FBF0D9
:100CC60090FEB1E054DFF090000312049FE5F0902F
:100CD600FED9F090000312049F90FEDA020F20ED79
:100CE6006404707A90FECDE054EFF0E054BFF090CB
:100CF600FECBE054FCF012042EFF90FECBE0548FA6
:100D06004FF0900006120447FF90FECD30E60DE04E
:100D16004410F090FEB1E04440F0800BE054EFF058
:100D260090FEB1E054BFF0EF90FECD30E70DE04409
:100D360040F090FEB1E04480F0800BE054BFF090AC
:100D4600FEB1E0547FF090000312049FE5F090FEA0
:100D5600DBF090000312049F90FEDC020F20ED648E
:100D660080704F90000512044790FEDEF09000015F
:100D760012049FE5F090FED2F090000112049F90BD
:100D8600FED3F090000812044790FEDDB40106E0A1
:100D96004480F08004E0547FF090000712044790EE
:100DA600FEC0B40106E04401F08004E054FEF07F8A
:100DB6000022ED6405705690FEECE054FEF090FEC5
:100DC600E8E054FCF012042EFF90FEE8E0548F4F4A
:100DD600F090000612044790FEEC30E00DE044016E
:100DE600F090FEB5E04401F0800BE054FEF090FE7A
:100DF600B5E054FEF090000312049FE5F090FEF576
:100E0600F090000312049F90FEF6020F20ED640698
:100E1600705690FEECE054EFF090FEE9E054FCF0E2
:100E260012042EFF90FEE9E0548F4FF09000061258
:100E3600044790FEEC30E20DE04410F090FEB5E081
:100E46004404F0800BE054EFF090FEB5E054FBF064
:100E560090000312049FE5F090FEF7F09000031255
:100E6600049F90FEF8020F20ED6407705590FEED8A
:100E7600E054FEF090FEEAE054FCF012042EFF90DF
:100E8600FEEAE0548F4FF090000612044790FEED04
:100E960030E40DE04401F090FEB5E04410F0800B24
:100EA600E054FEF090FEB5E054EFF090000312041B
:100EB6009FE5F090FEF9F090000312049F90FEFA71
:100EC6008058ED6408705790FEEDE054EFF090FE08
:100ED600EBE054FCF012042EFF90FEEBE0548F4F33
:100EE600F090000612044790FEED30E60DE0441047
:100EF600F090FEB5E04440F0800BE054EFF090FE39
:100F0600B5E054BFF090000312049FE5F090FEFB9D
:100F1600F090000312049F90FEFCF07F0022ED6427
:100F260081704C90000512044790FEFEF09000017F
:100F360012049FFDACF0EC90FEF2F0AF05A3EFF0CB
:100F460090000812044790FEFDB40106E04480F0CC
:100F56008004E0547FF090000712044790FEE0B44E
:100F66000106E04401F08004E054FEF07F00227F99
:020F7600FF2258
:1011CC00EF248070030212871470030212CC248067
:1011DC00B4080040030213189011F275F003A4C573
:1011EC008325F0C5837302120A021217021227021A
:1011FC0012370212470212570212670212771204B8
:10120C0074FDACF0EC90FED50213129000021204A7
:10121C009FFDACF0EC90FED7021312900004120468
:10122C009FFDACF0EC90FED9021312900006120454
:10123C009FFDACF0EC90FEDB021312900008120440
:10124C009FFDACF0EC90FEF502131290000A120414
:10125C009FFDACF0EC90FEF702131290000C120400
:10126C009FFDACF0EC90FEF902131290000E1204EC
:10127C009FFDACF0EC90FEFB021312120474FDAC5B
:10128C00F0EC90FED5F0AF05A3EFF0900002120445
:10129C009FFDACF0EC90FED7F0AF05A3EFF0900003
:1012AC000412049FFDACF0EC90FED9F0AF05A3EF57
:1012BC00F090000612049FFDACF0EC90FEDB804633
:1012CC0090000812049FFDACF0EC90FEF5F0AF0519
:1012DC00A3EFF090000A12049FFDACF0EC90FEF727
:1012EC00F0AF05A3EFF090000C12049FFDACF0ECF6
:1012FC0090FEF9F0AF05A3EFF090000E12049FFDE5
:0D130C00ACF0EC90FEFBF0AF05A3EFF0227B
:08068C008F518B528A538954EF
:10069400E55164016003020802F534F535F536F5D9
:1006A40037F538F555F55674402556F582740135FD
:1006B40055F583E4F00556E556700205556480450A
:1006C4005570E4E4F555F55674002556F58274002A
:1006D4003555F583E4F00556E556700205556480FA
:1006E400455570E4AB52AA53A95412042EFFE59861
:1006F400543F4FF598EF64C06008EF644060030214
:1007040007B79000021206267F807E8D7D5B7C00F9
:100714001205628F5A8E598D588C57E4FFFE7D0165
:10072400FCAB5AAA59A958A857C312060240037F22
:10073400FF22C3E4955AF55AE49559F55974019585
:1007440058F558E49557F557AB52AA53A95490005D
:1007540001120447FB6401702CC28E538EFE538930
:10076400BF5389CF438E40AF5AAE59AD58AC57787A
:10077400081206138F8D855A8BC2AB5389BF538FD2
:10078400FDD28E8062EB64027026538EEF438E019D
:10079400538EF7438E04AF5AAE59AD58AC57780810
:1007A4001206138FD6855AD753AFFB438E1080376A
:1007B4007FFF22AB52AA53A95412042EFF70139048
:1007C4000008120447B40105438E20801A538EDFBB
:1007D4008015EFB48011900008120447B40105435A
:1007E4008780800353877FAB52AA53A95490000794
:1007F4001204477004C29C8002D29C7F0022E551FF
:10080400640260030208FBF539F53AF53BF53CF563
:100814003DF555F55674E02556F58274013555F5C8
:1008240083E4F00556E5567002055564804555701D
:10083400E4E4F555F55674802556F5827400355573
:10084400F583E4F00556E556700205556480455578
:1008540070E4AB52AA53A95412042EFF64C060057D
:10086400EF64407075EFB4C005439A808003539AD7
:100874007F9000021206267F807E8D7D5B7C0012B5
:1008840005628F5A8E598D588C57E4FFFE7D01FC0A
:10089400AB5AAA59A958A857C312060240037FFFAE
:1008A40022C3E4955AF55AE49559F55974019558BB
:1008B400F558E49557F557538EEF538EF7438E044E
:1008C400AF5AAE59AD58AC5778081206138FD68577
:1008D4005AD753AFFB438E1080037FFF22AB52AA3B
:1008E40053A954900007120447C454F0FFE59A54E6
:1008F400EF4FF59A7F0022E55164036003020A2F4B
:10090400F53EF53FF540F541F542F555F556746071
:100914002556F58274023555F583E4F00556E556FF
:10092400700205556440455570E4E4F555F5567478
:10093400002556F58274013555F583E4F00556E536
:1009440056700205556440455570E4AB52AA53A94C
:100954005412042EFF64C06008EF64406003020A6E
:1009640012EFB4C00543AC80800353AC7F90000207
:100974001206267F807E8D7D5B7C001205628F5A75
:100984008E598D588C57E4FFFE7D01FCAB5AAA5951
:10099400A958A857C312060240037FFF22C3E49557
:1009A4005AF55AE49559F55974019558F558E49552
:1009B40057F557AB52AA53A954900001120447FBB0
:1009C400B4031D43AC40AF5AAE59AD58AC57780888
:1009D4001206138FD4855AD553D1F043D10A8031EE
:1009E400EB64027026538EEF53ACBF538EF7438EE5
:1009F40004AF5AAE59AD58AC5778081206138FD6C7
:100A0400855AD753AFFB438E1080067FFF227FFFAA
:100A140022AB52AA53A954900007120447C454F0BD
:100A2400FFE5AC54EF4FF5AC7F0022E55164046060
:100A340003020B63F543F544F545F546F547F555D3
:100A4400F55674A02556F58274023555F583E4F005
:100A54000556E556700205556420455570E4E4F5E5
:100A640055F55674C02556F58274013555F583E461
:100A7400F00556E556700205556420455570E4AB03
:100A840052AA53A95412042EFF64C06008EF6440B4
:100A94006003020B46EFB4C0054384808003538493
:100AA4007F9000021206267F807E8D7D5B7C001283
:100AB40005628F5A8E598D588C57E4FFFE7D01FCD8
:100AC400AB5AAA59A958A857C312060240037FFF7C
:100AD40022C3E4955AF55AE49559F5597401955889
:100AE400F558E49557F557AB52AA53A95490000111
:100AF400120447FBB4041D438440AF5AAE59AD58A9
:100B0400AC5778081206138FD2855AD353D10F43AA
:100B1400D1A08031EB64027026538EEF5384BF530F
:100B24008EF7438E04AF5AAE59AD58AC57780812BD
:100B340006138FD6855AD753AFFB438E1080067F9A
:100B4400FF227FFF22AB52AA53A95490000712043C
:100B540047C454F0FFE58454EF4FF5847F00227FAF
:010B6400FF91
:010B6500226D
:0A1F0A008F99753601E53670FC2250
:101EAE0012042EFF600C121F0A740129F9E43AFA8B
:031EBE0080EE2291
:0A1F14008F9B753B01E53B70FC223A
:101EC10012042EFF600C121F14740129F9E43AFA6E
:031ED10080EE227E
:0A1F1E008FAD754001E54070FC2214
:101ED40012042EFF600C121F1E740129F9E43AFA51
:031EE40080EE226B
:0A1F28008F85754501E54570FC2228
:101EE70012042EFF600C121F28740129F9E43AFA34
:031EF70080EE2258
:05001D00AE07021F0AFE
:030023000218C3FD
:1018C300C0E0C083C082C0D075D000C0073098206C
:1018D300C298E537C394804003753700AF370537A7
:1018E30074002FF582E43400F583E599F07538052B
:1018F300309905C299753600D007D0D0D082D083F5
:03190300D0E032FF
:030043000216D1D1
:1016D100C0E0C083C082C0D075D000C007E59A3099
:1016E100E021539AFEE53CC394804003753C00AF72
:1016F1003C053C74802FF582E43400F583E59BF0D2
:10170100753D05E59A30E106539AFD753B00D0071A
:09171100D0D0D082D083D0E032A8
:03008B0002171A3F
:10171A00C0E0C083C082C0D075D000C007E5AC303D
:10172A00E02153ACFEE541C394404003754100AF4C
:10173A0041054174002FF582E43401F583E5ADF0EB
:10174A00754205E5AC30E10653ACFD754000D007A3
:09175A00D0D0D082D083D0E0325F
:03009300021763EE
:10176300C0E0C083C082C0D075D000C007E584301C
:10177300E0215384FEE546C394204003754600AF41
:1017830046054674C02FF582E43401F583E585F000
:10179300754705E58430E1065384FD754500D007A0
:0917A300D0D0D082D083D0E03216
:10009600020419E86480F8E933E83360110460F07B
:1000A600ED33EC337009E8FCE9FDEAFEEBFF2204D0
:1000B60060DED3EB9FEA9EE99DE8C2E78CF0C2F7CB
:1000C60095F0400CE8CCF8E9CDF9EACEFAEBCFFB97
:1000D6001203E485D0F05804700320D5B3E8047009
:1000E600075002B2D502042392D5EC0460F7E4CCA3
:1000F600C0E0C398F8603B94186008400DD0E0FB60
:100106000203FBE4FBFAC9FC8028E830E406E4C9F4
:10011600FBE4CAFCE830E305E4C9CACBFCE85407B3
:100126006010F8C3E913F9EA13FAEB13FBEC13FCBE
:10013600D8F130F52FC3E49CFCEF9BFFEE9AFEED61
:1001460099FDD0E0FBEF4E4D4C701222DB0302040A
:1001560020EC2CFCEF33FFEE33FEED33FDED30E704
:10016600EB0203FBEF2BFFEE3AFEED39FDD0E0FB91
:1001760050130BBB0003020423ED13FDEE13FEEF39
:0801860013FFEC13FC0203FB64
:10018E00EC4D6011E8497017ED33EC3304600DE46B
:10019E00FCFFFEFD22E933E8330470F80204191265
:1001AE0003E458046009E4CC248150062850090267
:1001BE000423284003020420C0E0EB4A7044B980B7
:1001CE0006D0E0FB02040FEF4E701CBD8008EBFF63
:1001DE00EAFEE9FD80EBE98DF0A4FEE5F002027780
:1001EE00E9CDF9EAFEEBFFEF89F0A4FCE5F0CE894C
:1001FE00F0A42EFFE435F0CD89F0A42DFEE435F009
:10020E008067EF4E7005BD80D780C3EF8BF0A4AC36
:10021E00F0EE8BF0A42CFCE435F0F8EF8AF0A42C71
:10022E00E5F038FCE433CB8DF0A42CFCE5F03BF884
:10023E00EE8AF0A42CFCE5F038F8E433CF89F0A474
:10024E002CFCE5F038CF3400CE89F0A42FFFE5F07A
:10025E003EFEE433C98DF0A42EFEE5F039CD8AF0D2
:10026E00A42FFFE5F03EFEE43DFD33D0E0FB50074A
:10027E000BBB000F020423EC2CFCEF33FFEE33FE1E
:06028E00ED33FD0203FB4D
:10029400020423EC5D046005E859047003020419A8
:1002A4001203E4580460F6EC4860F2EC7004FDFEBE
:1002B400FF22C860DB2481C85009C398600250063D
:1002C4000204209850CAF582E9294B4A7005AB8292
:1002D40002040F75F0007C1A7880C3EF9BEE9AED50
:1002E40099400DC3EF9BFFEE9AFEED99FDE842F0B5
:1002F400DC23ACF0D0E0FFD0E0FED0E0FDAB822008
:10030400E7101BEB60BAEC2CFCEF33FFEE33FEED91
:1003140033FD0203FBE803F830E705C0F075F00095
:10032400EF2FFFEE33FEED33FD40B830E7C280AA75
:1003340074F8CC6480CCC86480C8F58204604FC370
:10034400EB9FF5F0EA9E42F0E99D42F0E89C45F00F
:10035400603C501DE5825FFFE582D313CB5BCBF499
:100364002B5582FB50280ABA002409B900200880C2
:100374001DE5825BFBE582D313CF5FCFF4C3132F5C
:100384005582FF50090EBE00050DBD00010CC3EBE4
:100394009FF5F0EA9E42F0E99D42F0E89C45F0604A
:0903A40007CC4820E701B3EC226C
:1003AD00EDD2E7CD33EC3392D524814006E4FFFE48
:1003BD00FDFC22FCE4CFCECDCC24E0501174FF80A7
:1003CD00EDC3CC13CCCD13CDCE13CECF13CF047044
:0703DD00F030D5DE0205F44B
:1003E400E9D2E7C933E833F892D5EDD2E7CD33EC5F
:0703F40033FC5002B2D522D8
:1003FB00EC30E7100FBF000C0EBE00080DBD000463
:10040B000BEB6014A2D5EB13FCED92E7FD2274FF0E
:10041B00FCFDFEFF22E480F8A2D574FF13FC7D8067
:03042B00E480EF7B
:10157E00021319E493A3F8E493A34003F68001F257
:10158E0008DFF48029E493A3F85407240CC8C3336E
:10159E00C4540F4420C8834004F456800146F6DF3D
:1015AE00E4800B0102040810204080901ABAE47EF9
:1015BE00019360BCA3FF543F30E509541FFEE49332
:1015CE00A360010ECF54C025E060A840B8E493A3F9
:1015DE00FAE493A3F8E493A3C8C582C8CAC583CA24
:1015EE00F0A3C8C582C8CAC583CADFE9DEE780BEDC
:011AF60000EF
:10042E00BB010689828A83E0225002E722BBFE02CC
:09043E00E32289828A83E49322FF
:10044700BB010CE58229F582E5833AF583E022506A
:1004570006E92582F8E622BBFE06E92582F8E222B4
:0D046700E58229F582E5833AF583E49322CE
:10047400BB010A89828A83E0F5F0A3E02250068753
:10048400F009E71922BBFE07E3F5F009E319228915
:0B049400828A83E493F5F07401932248
:10049F00BB0110E58229F582E5833AF583E0F5F09B
:1004AF00A3E0225009E92582F886F008E622BBFE78
:1004BF000AE92582F8E2F5F008E222E5832AF583BE
:0804CF00E993F5F0A3E9932283
:1004D700E88FF0A4CC8BF0A42CFCE98EF0A42CFCC4
:1004E7008AF0EDA42CFCEA8EF0A4CDA8F08BF0A442
:1004F7002DCC3825F0FDE98FF0A42CCD35F0FCEBA1
:100507008EF0A4FEA9F0EB8FF0A4CFC5F02ECD3965
:0F051700FEE43CFCEAA42DCE35F0FDE43CFC22D2
:1005260075F008758200EF2FFFEE33FECD33CDCC8C
:1005360033CCC58233C5829BED9AEC99E58298400F
:100546000CF582EE9BFEED9AFDEC99FC0FD5F0D6EC
:10055600E4CEFBE4CDFAE4CCF9A88222B800C1B916
:100566000059BA002DEC8BF084CFCECDFCE5F0CB54
:10057600F97818EF2FFFEE33FEED33FDEC33FCEB8D
:1005860033FB10D703994004EB99FB0FD8E5E4F948
:10059600FA227818EF2FFFEE33FEED33FDEC33FC35
:1005A600C933C910D7059BE99A4007EC9BFCE99A29
:1005B600F90FD8E0E4C9FAE4CCFB2275F010EF2F6E
:1005C600FFEE33FEED33FDCC33CCC833C810D7076E
:1005D6009BEC9AE899400AED9BFDEC9AFCE899F8A9
:0E05E6000FD5F0DAE4CDFBE4CCFAE4C8F9223C
:10187F00C2D5E830E70FB2D5E4C39BFBE49AFAE494
:10188F0099F9E498F8EC30E717B2D51218B51205AC
:10189F0062E4C39BFBE49AFAE499F9E498F88003B5
:1018AF0012056230D50DE4C39FFFE49EFEE49DFD5B
:0418BF00E49CFC2287
:0E05F400C3E49FFFE49EFEE49DFDE49CFC2218
:10060200EB9FF5F0EA9E42F0E99D42F0E89C45F04E
:0106120022C5
:10061300E8600FECC313FCED13FDEE13FEEF13FFC5
:03062300D8F122E9
:10062600BB010DE58229F582E5833AF5830206636F
:100636005007E92582F8020656BBFE07E92582F82F
:1006460002066FE58229F582E5833AF58302067C88
:0D065600E6FB08E6F908E6FA08E6CBF82214
:0C066300E0F8A3E0F9A3E0FAA3E0FB221A
:0D066F00E2FB08E2F908E2FA08E2CBF8220B
:10067C00E493F8740193F9740293FA740393FB22D4
:00000001FF
